{
  "contractName": "NFTFamilyMemberAvatar",
  "abi": [
    {
      "inputs": [
        {
          "internalType": "string",
          "name": "baseURI",
          "type": "string"
        }
      ],
      "stateMutability": "nonpayable",
      "type": "constructor"
    },
    {
      "anonymous": false,
      "inputs": [
        {
          "indexed": true,
          "internalType": "address",
          "name": "owner",
          "type": "address"
        },
        {
          "indexed": true,
          "internalType": "address",
          "name": "approved",
          "type": "address"
        },
        {
          "indexed": true,
          "internalType": "uint256",
          "name": "tokenId",
          "type": "uint256"
        }
      ],
      "name": "Approval",
      "type": "event"
    },
    {
      "anonymous": false,
      "inputs": [
        {
          "indexed": true,
          "internalType": "address",
          "name": "owner",
          "type": "address"
        },
        {
          "indexed": true,
          "internalType": "address",
          "name": "operator",
          "type": "address"
        },
        {
          "indexed": false,
          "internalType": "bool",
          "name": "approved",
          "type": "bool"
        }
      ],
      "name": "ApprovalForAll",
      "type": "event"
    },
    {
      "anonymous": false,
      "inputs": [
        {
          "indexed": true,
          "internalType": "address",
          "name": "previousOwner",
          "type": "address"
        },
        {
          "indexed": true,
          "internalType": "address",
          "name": "newOwner",
          "type": "address"
        }
      ],
      "name": "OwnershipTransferred",
      "type": "event"
    },
    {
      "anonymous": false,
      "inputs": [
        {
          "indexed": true,
          "internalType": "address",
          "name": "from",
          "type": "address"
        },
        {
          "indexed": true,
          "internalType": "address",
          "name": "to",
          "type": "address"
        },
        {
          "indexed": true,
          "internalType": "uint256",
          "name": "tokenId",
          "type": "uint256"
        }
      ],
      "name": "Transfer",
      "type": "event"
    },
    {
      "inputs": [],
      "name": "MAX_PER_MINT",
      "outputs": [
        {
          "internalType": "uint256",
          "name": "",
          "type": "uint256"
        }
      ],
      "stateMutability": "view",
      "type": "function"
    },
    {
      "inputs": [],
      "name": "MAX_SUPPLY",
      "outputs": [
        {
          "internalType": "uint256",
          "name": "",
          "type": "uint256"
        }
      ],
      "stateMutability": "view",
      "type": "function"
    },
    {
      "inputs": [],
      "name": "PRICE",
      "outputs": [
        {
          "internalType": "uint256",
          "name": "",
          "type": "uint256"
        }
      ],
      "stateMutability": "view",
      "type": "function"
    },
    {
      "inputs": [
        {
          "internalType": "address",
          "name": "to",
          "type": "address"
        },
        {
          "internalType": "uint256",
          "name": "tokenId",
          "type": "uint256"
        }
      ],
      "name": "approve",
      "outputs": [],
      "stateMutability": "nonpayable",
      "type": "function"
    },
    {
      "inputs": [
        {
          "internalType": "address",
          "name": "owner",
          "type": "address"
        }
      ],
      "name": "balanceOf",
      "outputs": [
        {
          "internalType": "uint256",
          "name": "",
          "type": "uint256"
        }
      ],
      "stateMutability": "view",
      "type": "function"
    },
    {
      "inputs": [],
      "name": "baseTokenURI",
      "outputs": [
        {
          "internalType": "string",
          "name": "",
          "type": "string"
        }
      ],
      "stateMutability": "view",
      "type": "function"
    },
    {
      "inputs": [
        {
          "internalType": "uint256",
          "name": "tokenId",
          "type": "uint256"
        }
      ],
      "name": "getApproved",
      "outputs": [
        {
          "internalType": "address",
          "name": "",
          "type": "address"
        }
      ],
      "stateMutability": "view",
      "type": "function"
    },
    {
      "inputs": [
        {
          "internalType": "address",
          "name": "owner",
          "type": "address"
        },
        {
          "internalType": "address",
          "name": "operator",
          "type": "address"
        }
      ],
      "name": "isApprovedForAll",
      "outputs": [
        {
          "internalType": "bool",
          "name": "",
          "type": "bool"
        }
      ],
      "stateMutability": "view",
      "type": "function"
    },
    {
      "inputs": [],
      "name": "name",
      "outputs": [
        {
          "internalType": "string",
          "name": "",
          "type": "string"
        }
      ],
      "stateMutability": "view",
      "type": "function"
    },
    {
      "inputs": [],
      "name": "owner",
      "outputs": [
        {
          "internalType": "address",
          "name": "",
          "type": "address"
        }
      ],
      "stateMutability": "view",
      "type": "function"
    },
    {
      "inputs": [
        {
          "internalType": "uint256",
          "name": "tokenId",
          "type": "uint256"
        }
      ],
      "name": "ownerOf",
      "outputs": [
        {
          "internalType": "address",
          "name": "",
          "type": "address"
        }
      ],
      "stateMutability": "view",
      "type": "function"
    },
    {
      "inputs": [],
      "name": "renounceOwnership",
      "outputs": [],
      "stateMutability": "nonpayable",
      "type": "function"
    },
    {
      "inputs": [
        {
          "internalType": "address",
          "name": "from",
          "type": "address"
        },
        {
          "internalType": "address",
          "name": "to",
          "type": "address"
        },
        {
          "internalType": "uint256",
          "name": "tokenId",
          "type": "uint256"
        }
      ],
      "name": "safeTransferFrom",
      "outputs": [],
      "stateMutability": "nonpayable",
      "type": "function"
    },
    {
      "inputs": [
        {
          "internalType": "address",
          "name": "from",
          "type": "address"
        },
        {
          "internalType": "address",
          "name": "to",
          "type": "address"
        },
        {
          "internalType": "uint256",
          "name": "tokenId",
          "type": "uint256"
        },
        {
          "internalType": "bytes",
          "name": "_data",
          "type": "bytes"
        }
      ],
      "name": "safeTransferFrom",
      "outputs": [],
      "stateMutability": "nonpayable",
      "type": "function"
    },
    {
      "inputs": [
        {
          "internalType": "address",
          "name": "operator",
          "type": "address"
        },
        {
          "internalType": "bool",
          "name": "approved",
          "type": "bool"
        }
      ],
      "name": "setApprovalForAll",
      "outputs": [],
      "stateMutability": "nonpayable",
      "type": "function"
    },
    {
      "inputs": [
        {
          "internalType": "bytes4",
          "name": "interfaceId",
          "type": "bytes4"
        }
      ],
      "name": "supportsInterface",
      "outputs": [
        {
          "internalType": "bool",
          "name": "",
          "type": "bool"
        }
      ],
      "stateMutability": "view",
      "type": "function"
    },
    {
      "inputs": [],
      "name": "symbol",
      "outputs": [
        {
          "internalType": "string",
          "name": "",
          "type": "string"
        }
      ],
      "stateMutability": "view",
      "type": "function"
    },
    {
      "inputs": [
        {
          "internalType": "uint256",
          "name": "index",
          "type": "uint256"
        }
      ],
      "name": "tokenByIndex",
      "outputs": [
        {
          "internalType": "uint256",
          "name": "",
          "type": "uint256"
        }
      ],
      "stateMutability": "view",
      "type": "function"
    },
    {
      "inputs": [
        {
          "internalType": "address",
          "name": "owner",
          "type": "address"
        },
        {
          "internalType": "uint256",
          "name": "index",
          "type": "uint256"
        }
      ],
      "name": "tokenOfOwnerByIndex",
      "outputs": [
        {
          "internalType": "uint256",
          "name": "",
          "type": "uint256"
        }
      ],
      "stateMutability": "view",
      "type": "function"
    },
    {
      "inputs": [
        {
          "internalType": "uint256",
          "name": "tokenId",
          "type": "uint256"
        }
      ],
      "name": "tokenURI",
      "outputs": [
        {
          "internalType": "string",
          "name": "",
          "type": "string"
        }
      ],
      "stateMutability": "view",
      "type": "function"
    },
    {
      "inputs": [],
      "name": "totalSupply",
      "outputs": [
        {
          "internalType": "uint256",
          "name": "",
          "type": "uint256"
        }
      ],
      "stateMutability": "view",
      "type": "function"
    },
    {
      "inputs": [
        {
          "internalType": "address",
          "name": "from",
          "type": "address"
        },
        {
          "internalType": "address",
          "name": "to",
          "type": "address"
        },
        {
          "internalType": "uint256",
          "name": "tokenId",
          "type": "uint256"
        }
      ],
      "name": "transferFrom",
      "outputs": [],
      "stateMutability": "nonpayable",
      "type": "function"
    },
    {
      "inputs": [
        {
          "internalType": "address",
          "name": "newOwner",
          "type": "address"
        }
      ],
      "name": "transferOwnership",
      "outputs": [],
      "stateMutability": "nonpayable",
      "type": "function"
    },
    {
      "inputs": [],
      "name": "reserveNFTs",
      "outputs": [],
      "stateMutability": "nonpayable",
      "type": "function"
    },
    {
      "inputs": [
        {
          "internalType": "string",
          "name": "_baseTokenURI",
          "type": "string"
        }
      ],
      "name": "setBaseURI",
      "outputs": [],
      "stateMutability": "nonpayable",
      "type": "function"
    },
    {
      "inputs": [
        {
          "internalType": "uint256",
          "name": "_count",
          "type": "uint256"
        }
      ],
      "name": "mintNFTs",
      "outputs": [],
      "stateMutability": "payable",
      "type": "function"
    },
    {
      "inputs": [
        {
          "internalType": "address",
          "name": "_owner",
          "type": "address"
        }
      ],
      "name": "tokensOfOwner",
      "outputs": [
        {
          "internalType": "uint256[]",
          "name": "",
          "type": "uint256[]"
        }
      ],
      "stateMutability": "view",
      "type": "function"
    },
    {
      "inputs": [],
      "name": "withdraw",
      "outputs": [],
      "stateMutability": "payable",
      "type": "function"
    }
  ],
  "bytecode": "0x60806040523480156200001157600080fd5b506040516200481e3803806200481e8339818101604052810190620000379190620004ff565b6040518060400160405280601881526020017f4e46542046616d696c79204d656d6265722041766174617200000000000000008152506040518060400160405280600681526020017f4e465446414d00000000000000000000000000000000000000000000000000008152508160009080519060200190620000bb929190620002b2565b508060019080519060200190620000d4929190620002b2565b505050620000f7620000eb6200010f60201b60201c565b6200011760201b60201c565b6200010881620001dd60201b60201c565b5062000637565b600033905090565b6000600a60009054906101000a900473ffffffffffffffffffffffffffffffffffffffff16905081600a60006101000a81548173ffffffffffffffffffffffffffffffffffffffff021916908373ffffffffffffffffffffffffffffffffffffffff1602179055508173ffffffffffffffffffffffffffffffffffffffff168173ffffffffffffffffffffffffffffffffffffffff167f8be0079c531659141344cd1fd0a4f28419497f9722a3daafe3b4186f6b6457e060405160405180910390a35050565b620001ed6200010f60201b60201c565b73ffffffffffffffffffffffffffffffffffffffff16620002136200028860201b60201c565b73ffffffffffffffffffffffffffffffffffffffff16146200026c576040517f08c379a00000000000000000000000000000000000000000000000000000000081526004016200026390620005b1565b60405180910390fd5b80600c908051906020019062000284929190620002b2565b5050565b6000600a60009054906101000a900473ffffffffffffffffffffffffffffffffffffffff16905090565b828054620002c09062000602565b90600052602060002090601f016020900481019282620002e4576000855562000330565b82601f10620002ff57805160ff191683800117855562000330565b8280016001018555821562000330579182015b828111156200032f57825182559160200191906001019062000312565b5b5090506200033f919062000343565b5090565b5b808211156200035e57600081600090555060010162000344565b5090565b6000604051905090565b600080fd5b600080fd5b600080fd5b600080fd5b6000601f19601f8301169050919050565b7f4e487b7100000000000000000000000000000000000000000000000000000000600052604160045260246000fd5b620003cb8262000380565b810181811067ffffffffffffffff82111715620003ed57620003ec62000391565b5b80604052505050565b60006200040262000362565b9050620004108282620003c0565b919050565b600067ffffffffffffffff82111562000433576200043262000391565b5b6200043e8262000380565b9050602081019050919050565b60005b838110156200046b5780820151818401526020810190506200044e565b838111156200047b576000848401525b50505050565b600062000498620004928462000415565b620003f6565b905082815260208101848484011115620004b757620004b66200037b565b5b620004c48482856200044b565b509392505050565b600082601f830112620004e457620004e362000376565b5b8151620004f684826020860162000481565b91505092915050565b6000602082840312156200051857620005176200036c565b5b600082015167ffffffffffffffff81111562000539576200053862000371565b5b6200054784828501620004cc565b91505092915050565b600082825260208201905092915050565b7f4f776e61626c653a2063616c6c6572206973206e6f7420746865206f776e6572600082015250565b60006200059960208362000550565b9150620005a68262000561565b602082019050919050565b60006020820190508181036000830152620005cc816200058a565b9050919050565b7f4e487b7100000000000000000000000000000000000000000000000000000000600052602260045260246000fd5b600060028204905060018216806200061b57607f821691505b602082108103620006315762000630620005d3565b5b50919050565b6141d780620006476000396000f3fe6080604052600436106101b75760003560e01c806355f804b3116100ec57806395d89b411161008a578063c87b56dd11610064578063c87b56dd146105de578063d547cfb71461061b578063e985e9c514610646578063f2fde38b14610683576101b7565b806395d89b4114610561578063a22cb4651461058c578063b88d4fde146105b5576101b7565b8063715018a6116100c6578063715018a6146104b75780638462151c146104ce5780638d859f3e1461050b5780638da5cb5b14610536576101b7565b806355f804b3146104145780636352211e1461043d57806370a082311461047a576101b7565b806323b872dd116101595780633b4b1381116101335780633b4b1381146103885780633ccfd60b146103a457806342842e0e146103ae5780634f6ccce7146103d7576101b7565b806323b872dd146102f75780632f745c591461032057806332cb6b0c1461035d576101b7565b8063095ea7b311610195578063095ea7b31461026157806309d42b301461028a578063144100c7146102b557806318160ddd146102cc576101b7565b806301ffc9a7146101bc57806306fdde03146101f9578063081812fc14610224575b600080fd5b3480156101c857600080fd5b506101e360048036038101906101de91906129cd565b6106ac565b6040516101f09190612a15565b60405180910390f35b34801561020557600080fd5b5061020e610726565b60405161021b9190612ac9565b60405180910390f35b34801561023057600080fd5b5061024b60048036038101906102469190612b21565b6107b8565b6040516102589190612b8f565b60405180910390f35b34801561026d57600080fd5b5061028860048036038101906102839190612bd6565b61083d565b005b34801561029657600080fd5b5061029f610954565b6040516102ac9190612c25565b60405180910390f35b3480156102c157600080fd5b506102ca610959565b005b3480156102d857600080fd5b506102e1610a64565b6040516102ee9190612c25565b60405180910390f35b34801561030357600080fd5b5061031e60048036038101906103199190612c40565b610a71565b005b34801561032c57600080fd5b5061034760048036038101906103429190612bd6565b610ad1565b6040516103549190612c25565b60405180910390f35b34801561036957600080fd5b50610372610b76565b60405161037f9190612c25565b60405180910390f35b6103a2600480360381019061039d9190612b21565b610b7b565b005b6103ac610cb6565b005b3480156103ba57600080fd5b506103d560048036038101906103d09190612c40565b610e2a565b005b3480156103e357600080fd5b506103fe60048036038101906103f99190612b21565b610e4a565b60405161040b9190612c25565b60405180910390f35b34801561042057600080fd5b5061043b60048036038101906104369190612dc8565b610ebb565b005b34801561044957600080fd5b50610464600480360381019061045f9190612b21565b610f51565b6040516104719190612b8f565b60405180910390f35b34801561048657600080fd5b506104a1600480360381019061049c9190612e11565b611002565b6040516104ae9190612c25565b60405180910390f35b3480156104c357600080fd5b506104cc6110b9565b005b3480156104da57600080fd5b506104f560048036038101906104f09190612e11565b611141565b6040516105029190612efc565b60405180910390f35b34801561051757600080fd5b506105206111ef565b60405161052d9190612c25565b60405180910390f35b34801561054257600080fd5b5061054b6111fa565b6040516105589190612b8f565b60405180910390f35b34801561056d57600080fd5b50610576611224565b6040516105839190612ac9565b60405180910390f35b34801561059857600080fd5b506105b360048036038101906105ae9190612f4a565b6112b6565b005b3480156105c157600080fd5b506105dc60048036038101906105d7919061302b565b6112cc565b005b3480156105ea57600080fd5b5061060560048036038101906106009190612b21565b61132e565b6040516106129190612ac9565b60405180910390f35b34801561062757600080fd5b506106306113d5565b60405161063d9190612ac9565b60405180910390f35b34801561065257600080fd5b5061066d600480360381019061066891906130ae565b611463565b60405161067a9190612a15565b60405180910390f35b34801561068f57600080fd5b506106aa60048036038101906106a59190612e11565b6114f7565b005b60007f780e9d63000000000000000000000000000000000000000000000000000000007bffffffffffffffffffffffffffffffffffffffffffffffffffffffff1916827bffffffffffffffffffffffffffffffffffffffffffffffffffffffff1916148061071f575061071e826115ee565b5b9050919050565b6060600080546107359061311d565b80601f01602080910402602001604051908101604052809291908181526020018280546107619061311d565b80156107ae5780601f10610783576101008083540402835291602001916107ae565b820191906000526020600020905b81548152906001019060200180831161079157829003601f168201915b5050505050905090565b60006107c3826116d0565b610802576040517f08c379a00000000000000000000000000000000000000000000000000000000081526004016107f9906131c0565b60405180910390fd5b6004600083815260200190815260200160002060009054906101000a900473ffffffffffffffffffffffffffffffffffffffff169050919050565b600061084882610f51565b90508073ffffffffffffffffffffffffffffffffffffffff168373ffffffffffffffffffffffffffffffffffffffff16036108b8576040517f08c379a00000000000000000000000000000000000000000000000000000000081526004016108af90613252565b60405180910390fd5b8073ffffffffffffffffffffffffffffffffffffffff166108d761173c565b73ffffffffffffffffffffffffffffffffffffffff16148061090657506109058161090061173c565b611463565b5b610945576040517f08c379a000000000000000000000000000000000000000000000000000000000815260040161093c906132e4565b60405180910390fd5b61094f8383611744565b505050565b600581565b61096161173c565b73ffffffffffffffffffffffffffffffffffffffff1661097f6111fa565b73ffffffffffffffffffffffffffffffffffffffff16146109d5576040517f08c379a00000000000000000000000000000000000000000000000000000000081526004016109cc90613350565b60405180910390fd5b60006109e1600b6117fd565b905060646109f9600a8361180b90919063ffffffff16565b10610a39576040517f08c379a0000000000000000000000000000000000000000000000000000000008152600401610a30906133bc565b60405180910390fd5b60005b600a811015610a6057610a4d611821565b8080610a589061340b565b915050610a3c565b5050565b6000600880549050905090565b610a82610a7c61173c565b82611846565b610ac1576040517f08c379a0000000000000000000000000000000000000000000000000000000008152600401610ab8906134c5565b60405180910390fd5b610acc838383611924565b505050565b6000610adc83611002565b8210610b1d576040517f08c379a0000000000000000000000000000000000000000000000000000000008152600401610b1490613557565b60405180910390fd5b600660008473ffffffffffffffffffffffffffffffffffffffff1673ffffffffffffffffffffffffffffffffffffffff168152602001908152602001600020600083815260200190815260200160002054905092915050565b606481565b6000610b87600b6117fd565b90506064610b9e838361180b90919063ffffffff16565b1115610bdf576040517f08c379a0000000000000000000000000000000000000000000000000000000008152600401610bd6906135c3565b60405180910390fd5b600082118015610bf0575060058211155b610c2f576040517f08c379a0000000000000000000000000000000000000000000000000000000008152600401610c2690613655565b60405180910390fd5b610c4982662386f26fc10000611b8a90919063ffffffff16565b341015610c8b576040517f08c379a0000000000000000000000000000000000000000000000000000000008152600401610c82906136e7565b60405180910390fd5b60005b82811015610cb157610c9e611821565b8080610ca99061340b565b915050610c8e565b505050565b610cbe61173c565b73ffffffffffffffffffffffffffffffffffffffff16610cdc6111fa565b73ffffffffffffffffffffffffffffffffffffffff1614610d32576040517f08c379a0000000000000000000000000000000000000000000000000000000008152600401610d2990613350565b60405180910390fd5b600047905060008111610d7a576040517f08c379a0000000000000000000000000000000000000000000000000000000008152600401610d7190613753565b60405180910390fd5b60003373ffffffffffffffffffffffffffffffffffffffff1682604051610da0906137a4565b60006040518083038185875af1925050503d8060008114610ddd576040519150601f19603f3d011682016040523d82523d6000602084013e610de2565b606091505b5050905080610e26576040517f08c379a0000000000000000000000000000000000000000000000000000000008152600401610e1d90613805565b60405180910390fd5b5050565b610e45838383604051806020016040528060008152506112cc565b505050565b6000610e54610a64565b8210610e95576040517f08c379a0000000000000000000000000000000000000000000000000000000008152600401610e8c90613897565b60405180910390fd5b60088281548110610ea957610ea86138b7565b5b90600052602060002001549050919050565b610ec361173c565b73ffffffffffffffffffffffffffffffffffffffff16610ee16111fa565b73ffffffffffffffffffffffffffffffffffffffff1614610f37576040517f08c379a0000000000000000000000000000000000000000000000000000000008152600401610f2e90613350565b60405180910390fd5b80600c9080519060200190610f4d9291906128be565b5050565b6000806002600084815260200190815260200160002060009054906101000a900473ffffffffffffffffffffffffffffffffffffffff169050600073ffffffffffffffffffffffffffffffffffffffff168173ffffffffffffffffffffffffffffffffffffffff1603610ff9576040517f08c379a0000000000000000000000000000000000000000000000000000000008152600401610ff090613958565b60405180910390fd5b80915050919050565b60008073ffffffffffffffffffffffffffffffffffffffff168273ffffffffffffffffffffffffffffffffffffffff1603611072576040517f08c379a0000000000000000000000000000000000000000000000000000000008152600401611069906139ea565b60405180910390fd5b600360008373ffffffffffffffffffffffffffffffffffffffff1673ffffffffffffffffffffffffffffffffffffffff168152602001908152602001600020549050919050565b6110c161173c565b73ffffffffffffffffffffffffffffffffffffffff166110df6111fa565b73ffffffffffffffffffffffffffffffffffffffff1614611135576040517f08c379a000000000000000000000000000000000000000000000000000000000815260040161112c90613350565b60405180910390fd5b61113f6000611ba0565b565b6060600061114e83611002565b905060008167ffffffffffffffff81111561116c5761116b612c9d565b5b60405190808252806020026020018201604052801561119a5781602001602082028036833780820191505090505b50905060005b828110156111e4576111b28582610ad1565b8282815181106111c5576111c46138b7565b5b60200260200101818152505080806111dc9061340b565b9150506111a0565b508092505050919050565b662386f26fc1000081565b6000600a60009054906101000a900473ffffffffffffffffffffffffffffffffffffffff16905090565b6060600180546112339061311d565b80601f016020809104026020016040519081016040528092919081815260200182805461125f9061311d565b80156112ac5780601f10611281576101008083540402835291602001916112ac565b820191906000526020600020905b81548152906001019060200180831161128f57829003601f168201915b5050505050905090565b6112c86112c161173c565b8383611c66565b5050565b6112dd6112d761173c565b83611846565b61131c576040517f08c379a0000000000000000000000000000000000000000000000000000000008152600401611313906134c5565b60405180910390fd5b61132884848484611dd2565b50505050565b6060611339826116d0565b611378576040517f08c379a000000000000000000000000000000000000000000000000000000000815260040161136f90613a7c565b60405180910390fd5b6000611382611e2e565b905060008151116113a257604051806020016040528060008152506113cd565b806113ac84611ec0565b6040516020016113bd929190613ad8565b6040516020818303038152906040525b915050919050565b600c80546113e29061311d565b80601f016020809104026020016040519081016040528092919081815260200182805461140e9061311d565b801561145b5780601f106114305761010080835404028352916020019161145b565b820191906000526020600020905b81548152906001019060200180831161143e57829003601f168201915b505050505081565b6000600560008473ffffffffffffffffffffffffffffffffffffffff1673ffffffffffffffffffffffffffffffffffffffff16815260200190815260200160002060008373ffffffffffffffffffffffffffffffffffffffff1673ffffffffffffffffffffffffffffffffffffffff16815260200190815260200160002060009054906101000a900460ff16905092915050565b6114ff61173c565b73ffffffffffffffffffffffffffffffffffffffff1661151d6111fa565b73ffffffffffffffffffffffffffffffffffffffff1614611573576040517f08c379a000000000000000000000000000000000000000000000000000000000815260040161156a90613350565b60405180910390fd5b600073ffffffffffffffffffffffffffffffffffffffff168173ffffffffffffffffffffffffffffffffffffffff16036115e2576040517f08c379a00000000000000000000000000000000000000000000000000000000081526004016115d990613b6e565b60405180910390fd5b6115eb81611ba0565b50565b60007f80ac58cd000000000000000000000000000000000000000000000000000000007bffffffffffffffffffffffffffffffffffffffffffffffffffffffff1916827bffffffffffffffffffffffffffffffffffffffffffffffffffffffff191614806116b957507f5b5e139f000000000000000000000000000000000000000000000000000000007bffffffffffffffffffffffffffffffffffffffffffffffffffffffff1916827bffffffffffffffffffffffffffffffffffffffffffffffffffffffff1916145b806116c957506116c882612020565b5b9050919050565b60008073ffffffffffffffffffffffffffffffffffffffff166002600084815260200190815260200160002060009054906101000a900473ffffffffffffffffffffffffffffffffffffffff1673ffffffffffffffffffffffffffffffffffffffff1614159050919050565b600033905090565b816004600083815260200190815260200160002060006101000a81548173ffffffffffffffffffffffffffffffffffffffff021916908373ffffffffffffffffffffffffffffffffffffffff160217905550808273ffffffffffffffffffffffffffffffffffffffff166117b783610f51565b73ffffffffffffffffffffffffffffffffffffffff167f8c5be1e5ebec7d5bd14f71427d1e84f3dd0314c0f7b2291e5b200ac8c7c3b92560405160405180910390a45050565b600081600001549050919050565b600081836118199190613b8e565b905092915050565b600061182d600b6117fd565b9050611839338261208a565b611843600b6120a8565b50565b6000611851826116d0565b611890576040517f08c379a000000000000000000000000000000000000000000000000000000000815260040161188790613c56565b60405180910390fd5b600061189b83610f51565b90508073ffffffffffffffffffffffffffffffffffffffff168473ffffffffffffffffffffffffffffffffffffffff1614806118dd57506118dc8185611463565b5b8061191b57508373ffffffffffffffffffffffffffffffffffffffff16611903846107b8565b73ffffffffffffffffffffffffffffffffffffffff16145b91505092915050565b8273ffffffffffffffffffffffffffffffffffffffff1661194482610f51565b73ffffffffffffffffffffffffffffffffffffffff161461199a576040517f08c379a000000000000000000000000000000000000000000000000000000000815260040161199190613ce8565b60405180910390fd5b600073ffffffffffffffffffffffffffffffffffffffff168273ffffffffffffffffffffffffffffffffffffffff1603611a09576040517f08c379a0000000000000000000000000000000000000000000000000000000008152600401611a0090613d7a565b60405180910390fd5b611a148383836120be565b611a1f600082611744565b6001600360008573ffffffffffffffffffffffffffffffffffffffff1673ffffffffffffffffffffffffffffffffffffffff1681526020019081526020016000206000828254611a6f9190613d9a565b925050819055506001600360008473ffffffffffffffffffffffffffffffffffffffff1673ffffffffffffffffffffffffffffffffffffffff1681526020019081526020016000206000828254611ac69190613b8e565b92505081905550816002600083815260200190815260200160002060006101000a81548173ffffffffffffffffffffffffffffffffffffffff021916908373ffffffffffffffffffffffffffffffffffffffff160217905550808273ffffffffffffffffffffffffffffffffffffffff168473ffffffffffffffffffffffffffffffffffffffff167fddf252ad1be2c89b69c2b068fc378daa952ba7f163c4a11628f55a4df523b3ef60405160405180910390a4611b858383836121d0565b505050565b60008183611b989190613dce565b905092915050565b6000600a60009054906101000a900473ffffffffffffffffffffffffffffffffffffffff16905081600a60006101000a81548173ffffffffffffffffffffffffffffffffffffffff021916908373ffffffffffffffffffffffffffffffffffffffff1602179055508173ffffffffffffffffffffffffffffffffffffffff168173ffffffffffffffffffffffffffffffffffffffff167f8be0079c531659141344cd1fd0a4f28419497f9722a3daafe3b4186f6b6457e060405160405180910390a35050565b8173ffffffffffffffffffffffffffffffffffffffff168373ffffffffffffffffffffffffffffffffffffffff1603611cd4576040517f08c379a0000000000000000000000000000000000000000000000000000000008152600401611ccb90613e74565b60405180910390fd5b80600560008573ffffffffffffffffffffffffffffffffffffffff1673ffffffffffffffffffffffffffffffffffffffff16815260200190815260200160002060008473ffffffffffffffffffffffffffffffffffffffff1673ffffffffffffffffffffffffffffffffffffffff16815260200190815260200160002060006101000a81548160ff0219169083151502179055508173ffffffffffffffffffffffffffffffffffffffff168373ffffffffffffffffffffffffffffffffffffffff167f17307eab39ab6107e8899845ad3d59bd9653f200f220920489ca2b5937696c3183604051611dc59190612a15565b60405180910390a3505050565b611ddd848484611924565b611de9848484846121d5565b611e28576040517f08c379a0000000000000000000000000000000000000000000000000000000008152600401611e1f90613f06565b60405180910390fd5b50505050565b6060600c8054611e3d9061311d565b80601f0160208091040260200160405190810160405280929190818152602001828054611e699061311d565b8015611eb65780601f10611e8b57610100808354040283529160200191611eb6565b820191906000526020600020905b815481529060010190602001808311611e9957829003601f168201915b5050505050905090565b606060008203611f07576040518060400160405280600181526020017f3000000000000000000000000000000000000000000000000000000000000000815250905061201b565b600082905060005b60008214611f39578080611f229061340b565b915050600a82611f329190613f55565b9150611f0f565b60008167ffffffffffffffff811115611f5557611f54612c9d565b5b6040519080825280601f01601f191660200182016040528015611f875781602001600182028036833780820191505090505b5090505b6000851461201457600182611fa09190613d9a565b9150600a85611faf9190613f86565b6030611fbb9190613b8e565b60f81b818381518110611fd157611fd06138b7565b5b60200101907effffffffffffffffffffffffffffffffffffffffffffffffffffffffffffff1916908160001a905350600a8561200d9190613f55565b9450611f8b565b8093505050505b919050565b60007f01ffc9a7000000000000000000000000000000000000000000000000000000007bffffffffffffffffffffffffffffffffffffffffffffffffffffffff1916827bffffffffffffffffffffffffffffffffffffffffffffffffffffffff1916149050919050565b6120a482826040518060200160405280600081525061235c565b5050565b6001816000016000828254019250508190555050565b6120c98383836123b7565b600073ffffffffffffffffffffffffffffffffffffffff168373ffffffffffffffffffffffffffffffffffffffff160361210b57612106816123bc565b61214a565b8173ffffffffffffffffffffffffffffffffffffffff168373ffffffffffffffffffffffffffffffffffffffff1614612149576121488382612405565b5b5b600073ffffffffffffffffffffffffffffffffffffffff168273ffffffffffffffffffffffffffffffffffffffff160361218c5761218781612572565b6121cb565b8273ffffffffffffffffffffffffffffffffffffffff168273ffffffffffffffffffffffffffffffffffffffff16146121ca576121c98282612643565b5b5b505050565b505050565b60006121f68473ffffffffffffffffffffffffffffffffffffffff166126c2565b1561234f578373ffffffffffffffffffffffffffffffffffffffff1663150b7a0261221f61173c565b8786866040518563ffffffff1660e01b8152600401612241949392919061400c565b6020604051808303816000875af192505050801561227d57506040513d601f19601f8201168201806040525081019061227a919061406d565b60015b6122ff573d80600081146122ad576040519150601f19603f3d011682016040523d82523d6000602084013e6122b2565b606091505b5060008151036122f7576040517f08c379a00000000000000000000000000000000000000000000000000000000081526004016122ee90613f06565b60405180910390fd5b805181602001fd5b63150b7a0260e01b7bffffffffffffffffffffffffffffffffffffffffffffffffffffffff1916817bffffffffffffffffffffffffffffffffffffffffffffffffffffffff191614915050612354565b600190505b949350505050565b61236683836126e5565b61237360008484846121d5565b6123b2576040517f08c379a00000000000000000000000000000000000000000000000000000000081526004016123a990613f06565b60405180910390fd5b505050565b505050565b6008805490506009600083815260200190815260200160002081905550600881908060018154018082558091505060019003906000526020600020016000909190919091505550565b6000600161241284611002565b61241c9190613d9a565b9050600060076000848152602001908152602001600020549050818114612501576000600660008673ffffffffffffffffffffffffffffffffffffffff1673ffffffffffffffffffffffffffffffffffffffff168152602001908152602001600020600084815260200190815260200160002054905080600660008773ffffffffffffffffffffffffffffffffffffffff1673ffffffffffffffffffffffffffffffffffffffff168152602001908152602001600020600084815260200190815260200160002081905550816007600083815260200190815260200160002081905550505b6007600084815260200190815260200160002060009055600660008573ffffffffffffffffffffffffffffffffffffffff1673ffffffffffffffffffffffffffffffffffffffff16815260200190815260200160002060008381526020019081526020016000206000905550505050565b600060016008805490506125869190613d9a565b90506000600960008481526020019081526020016000205490506000600883815481106125b6576125b56138b7565b5b9060005260206000200154905080600883815481106125d8576125d76138b7565b5b9060005260206000200181905550816009600083815260200190815260200160002081905550600960008581526020019081526020016000206000905560088054806126275761262661409a565b5b6001900381819060005260206000200160009055905550505050565b600061264e83611002565b905081600660008573ffffffffffffffffffffffffffffffffffffffff1673ffffffffffffffffffffffffffffffffffffffff168152602001908152602001600020600083815260200190815260200160002081905550806007600084815260200190815260200160002081905550505050565b6000808273ffffffffffffffffffffffffffffffffffffffff163b119050919050565b600073ffffffffffffffffffffffffffffffffffffffff168273ffffffffffffffffffffffffffffffffffffffff1603612754576040517f08c379a000000000000000000000000000000000000000000000000000000000815260040161274b90614115565b60405180910390fd5b61275d816116d0565b1561279d576040517f08c379a000000000000000000000000000000000000000000000000000000000815260040161279490614181565b60405180910390fd5b6127a9600083836120be565b6001600360008473ffffffffffffffffffffffffffffffffffffffff1673ffffffffffffffffffffffffffffffffffffffff16815260200190815260200160002060008282546127f99190613b8e565b92505081905550816002600083815260200190815260200160002060006101000a81548173ffffffffffffffffffffffffffffffffffffffff021916908373ffffffffffffffffffffffffffffffffffffffff160217905550808273ffffffffffffffffffffffffffffffffffffffff16600073ffffffffffffffffffffffffffffffffffffffff167fddf252ad1be2c89b69c2b068fc378daa952ba7f163c4a11628f55a4df523b3ef60405160405180910390a46128ba600083836121d0565b5050565b8280546128ca9061311d565b90600052602060002090601f0160209004810192826128ec5760008555612933565b82601f1061290557805160ff1916838001178555612933565b82800160010185558215612933579182015b82811115612932578251825591602001919060010190612917565b5b5090506129409190612944565b5090565b5b8082111561295d576000816000905550600101612945565b5090565b6000604051905090565b600080fd5b600080fd5b60007fffffffff0000000000000000000000000000000000000000000000000000000082169050919050565b6129aa81612975565b81146129b557600080fd5b50565b6000813590506129c7816129a1565b92915050565b6000602082840312156129e3576129e261296b565b5b60006129f1848285016129b8565b91505092915050565b60008115159050919050565b612a0f816129fa565b82525050565b6000602082019050612a2a6000830184612a06565b92915050565b600081519050919050565b600082825260208201905092915050565b60005b83811015612a6a578082015181840152602081019050612a4f565b83811115612a79576000848401525b50505050565b6000601f19601f8301169050919050565b6000612a9b82612a30565b612aa58185612a3b565b9350612ab5818560208601612a4c565b612abe81612a7f565b840191505092915050565b60006020820190508181036000830152612ae38184612a90565b905092915050565b6000819050919050565b612afe81612aeb565b8114612b0957600080fd5b50565b600081359050612b1b81612af5565b92915050565b600060208284031215612b3757612b3661296b565b5b6000612b4584828501612b0c565b91505092915050565b600073ffffffffffffffffffffffffffffffffffffffff82169050919050565b6000612b7982612b4e565b9050919050565b612b8981612b6e565b82525050565b6000602082019050612ba46000830184612b80565b92915050565b612bb381612b6e565b8114612bbe57600080fd5b50565b600081359050612bd081612baa565b92915050565b60008060408385031215612bed57612bec61296b565b5b6000612bfb85828601612bc1565b9250506020612c0c85828601612b0c565b9150509250929050565b612c1f81612aeb565b82525050565b6000602082019050612c3a6000830184612c16565b92915050565b600080600060608486031215612c5957612c5861296b565b5b6000612c6786828701612bc1565b9350506020612c7886828701612bc1565b9250506040612c8986828701612b0c565b9150509250925092565b600080fd5b600080fd5b7f4e487b7100000000000000000000000000000000000000000000000000000000600052604160045260246000fd5b612cd582612a7f565b810181811067ffffffffffffffff82111715612cf457612cf3612c9d565b5b80604052505050565b6000612d07612961565b9050612d138282612ccc565b919050565b600067ffffffffffffffff821115612d3357612d32612c9d565b5b612d3c82612a7f565b9050602081019050919050565b82818337600083830152505050565b6000612d6b612d6684612d18565b612cfd565b905082815260208101848484011115612d8757612d86612c98565b5b612d92848285612d49565b509392505050565b600082601f830112612daf57612dae612c93565b5b8135612dbf848260208601612d58565b91505092915050565b600060208284031215612dde57612ddd61296b565b5b600082013567ffffffffffffffff811115612dfc57612dfb612970565b5b612e0884828501612d9a565b91505092915050565b600060208284031215612e2757612e2661296b565b5b6000612e3584828501612bc1565b91505092915050565b600081519050919050565b600082825260208201905092915050565b6000819050602082019050919050565b612e7381612aeb565b82525050565b6000612e858383612e6a565b60208301905092915050565b6000602082019050919050565b6000612ea982612e3e565b612eb38185612e49565b9350612ebe83612e5a565b8060005b83811015612eef578151612ed68882612e79565b9750612ee183612e91565b925050600181019050612ec2565b5085935050505092915050565b60006020820190508181036000830152612f168184612e9e565b905092915050565b612f27816129fa565b8114612f3257600080fd5b50565b600081359050612f4481612f1e565b92915050565b60008060408385031215612f6157612f6061296b565b5b6000612f6f85828601612bc1565b9250506020612f8085828601612f35565b9150509250929050565b600067ffffffffffffffff821115612fa557612fa4612c9d565b5b612fae82612a7f565b9050602081019050919050565b6000612fce612fc984612f8a565b612cfd565b905082815260208101848484011115612fea57612fe9612c98565b5b612ff5848285612d49565b509392505050565b600082601f83011261301257613011612c93565b5b8135613022848260208601612fbb565b91505092915050565b600080600080608085870312156130455761304461296b565b5b600061305387828801612bc1565b945050602061306487828801612bc1565b935050604061307587828801612b0c565b925050606085013567ffffffffffffffff81111561309657613095612970565b5b6130a287828801612ffd565b91505092959194509250565b600080604083850312156130c5576130c461296b565b5b60006130d385828601612bc1565b92505060206130e485828601612bc1565b9150509250929050565b7f4e487b7100000000000000000000000000000000000000000000000000000000600052602260045260246000fd5b6000600282049050600182168061313557607f821691505b602082108103613148576131476130ee565b5b50919050565b7f4552433732313a20617070726f76656420717565727920666f72206e6f6e657860008201527f697374656e7420746f6b656e0000000000000000000000000000000000000000602082015250565b60006131aa602c83612a3b565b91506131b58261314e565b604082019050919050565b600060208201905081810360008301526131d98161319d565b9050919050565b7f4552433732313a20617070726f76616c20746f2063757272656e74206f776e6560008201527f7200000000000000000000000000000000000000000000000000000000000000602082015250565b600061323c602183612a3b565b9150613247826131e0565b604082019050919050565b6000602082019050818103600083015261326b8161322f565b9050919050565b7f4552433732313a20617070726f76652063616c6c6572206973206e6f74206f7760008201527f6e6572206e6f7220617070726f76656420666f7220616c6c0000000000000000602082015250565b60006132ce603883612a3b565b91506132d982613272565b604082019050919050565b600060208201905081810360008301526132fd816132c1565b9050919050565b7f4f776e61626c653a2063616c6c6572206973206e6f7420746865206f776e6572600082015250565b600061333a602083612a3b565b915061334582613304565b602082019050919050565b600060208201905081810360008301526133698161332d565b9050919050565b7f4e6f7420656e6f756768204e465473206c65667420746f207265736572766500600082015250565b60006133a6601f83612a3b565b91506133b182613370565b602082019050919050565b600060208201905081810360008301526133d581613399565b9050919050565b7f4e487b7100000000000000000000000000000000000000000000000000000000600052601160045260246000fd5b600061341682612aeb565b91507fffffffffffffffffffffffffffffffffffffffffffffffffffffffffffffffff8203613448576134476133dc565b5b600182019050919050565b7f4552433732313a207472616e736665722063616c6c6572206973206e6f74206f60008201527f776e6572206e6f7220617070726f766564000000000000000000000000000000602082015250565b60006134af603183612a3b565b91506134ba82613453565b604082019050919050565b600060208201905081810360008301526134de816134a2565b9050919050565b7f455243373231456e756d657261626c653a206f776e657220696e646578206f7560008201527f74206f6620626f756e6473000000000000000000000000000000000000000000602082015250565b6000613541602b83612a3b565b915061354c826134e5565b604082019050919050565b6000602082019050818103600083015261357081613534565b9050919050565b7f4e6f7420656e6f756768204e465473206c656674210000000000000000000000600082015250565b60006135ad601583612a3b565b91506135b882613577565b602082019050919050565b600060208201905081810360008301526135dc816135a0565b9050919050565b7f43616e6e6f74206d696e7420737065636966696564206e756d626572206f662060008201527f4e4654732e000000000000000000000000000000000000000000000000000000602082015250565b600061363f602583612a3b565b915061364a826135e3565b604082019050919050565b6000602082019050818103600083015261366e81613632565b9050919050565b7f4e6f7420656e6f75676820657468657220746f207075726368617365204e465460008201527f732e000000000000000000000000000000000000000000000000000000000000602082015250565b60006136d1602283612a3b565b91506136dc82613675565b604082019050919050565b60006020820190508181036000830152613700816136c4565b9050919050565b7f4e6f206574686572206c65667420746f20776974686472617700000000000000600082015250565b600061373d601983612a3b565b915061374882613707565b602082019050919050565b6000602082019050818103600083015261376c81613730565b9050919050565b600081905092915050565b50565b600061378e600083613773565b91506137998261377e565b600082019050919050565b60006137af82613781565b9150819050919050565b7f5472616e73666572206661696c65642e00000000000000000000000000000000600082015250565b60006137ef601083612a3b565b91506137fa826137b9565b602082019050919050565b6000602082019050818103600083015261381e816137e2565b9050919050565b7f455243373231456e756d657261626c653a20676c6f62616c20696e646578206f60008201527f7574206f6620626f756e64730000000000000000000000000000000000000000602082015250565b6000613881602c83612a3b565b915061388c82613825565b604082019050919050565b600060208201905081810360008301526138b081613874565b9050919050565b7f4e487b7100000000000000000000000000000000000000000000000000000000600052603260045260246000fd5b7f4552433732313a206f776e657220717565727920666f72206e6f6e657869737460008201527f656e7420746f6b656e0000000000000000000000000000000000000000000000602082015250565b6000613942602983612a3b565b915061394d826138e6565b604082019050919050565b6000602082019050818103600083015261397181613935565b9050919050565b7f4552433732313a2062616c616e636520717565727920666f7220746865207a6560008201527f726f206164647265737300000000000000000000000000000000000000000000602082015250565b60006139d4602a83612a3b565b91506139df82613978565b604082019050919050565b60006020820190508181036000830152613a03816139c7565b9050919050565b7f4552433732314d657461646174613a2055524920717565727920666f72206e6f60008201527f6e6578697374656e7420746f6b656e0000000000000000000000000000000000602082015250565b6000613a66602f83612a3b565b9150613a7182613a0a565b604082019050919050565b60006020820190508181036000830152613a9581613a59565b9050919050565b600081905092915050565b6000613ab282612a30565b613abc8185613a9c565b9350613acc818560208601612a4c565b80840191505092915050565b6000613ae48285613aa7565b9150613af08284613aa7565b91508190509392505050565b7f4f776e61626c653a206e6577206f776e657220697320746865207a65726f206160008201527f6464726573730000000000000000000000000000000000000000000000000000602082015250565b6000613b58602683612a3b565b9150613b6382613afc565b604082019050919050565b60006020820190508181036000830152613b8781613b4b565b9050919050565b6000613b9982612aeb565b9150613ba483612aeb565b9250827fffffffffffffffffffffffffffffffffffffffffffffffffffffffffffffffff03821115613bd957613bd86133dc565b5b828201905092915050565b7f4552433732313a206f70657261746f7220717565727920666f72206e6f6e657860008201527f697374656e7420746f6b656e0000000000000000000000000000000000000000602082015250565b6000613c40602c83612a3b565b9150613c4b82613be4565b604082019050919050565b60006020820190508181036000830152613c6f81613c33565b9050919050565b7f4552433732313a207472616e736665722066726f6d20696e636f72726563742060008201527f6f776e6572000000000000000000000000000000000000000000000000000000602082015250565b6000613cd2602583612a3b565b9150613cdd82613c76565b604082019050919050565b60006020820190508181036000830152613d0181613cc5565b9050919050565b7f4552433732313a207472616e7366657220746f20746865207a65726f2061646460008201527f7265737300000000000000000000000000000000000000000000000000000000602082015250565b6000613d64602483612a3b565b9150613d6f82613d08565b604082019050919050565b60006020820190508181036000830152613d9381613d57565b9050919050565b6000613da582612aeb565b9150613db083612aeb565b925082821015613dc357613dc26133dc565b5b828203905092915050565b6000613dd982612aeb565b9150613de483612aeb565b9250817fffffffffffffffffffffffffffffffffffffffffffffffffffffffffffffffff0483118215151615613e1d57613e1c6133dc565b5b828202905092915050565b7f4552433732313a20617070726f766520746f2063616c6c657200000000000000600082015250565b6000613e5e601983612a3b565b9150613e6982613e28565b602082019050919050565b60006020820190508181036000830152613e8d81613e51565b9050919050565b7f4552433732313a207472616e7366657220746f206e6f6e20455243373231526560008201527f63656976657220696d706c656d656e7465720000000000000000000000000000602082015250565b6000613ef0603283612a3b565b9150613efb82613e94565b604082019050919050565b60006020820190508181036000830152613f1f81613ee3565b9050919050565b7f4e487b7100000000000000000000000000000000000000000000000000000000600052601260045260246000fd5b6000613f6082612aeb565b9150613f6b83612aeb565b925082613f7b57613f7a613f26565b5b828204905092915050565b6000613f9182612aeb565b9150613f9c83612aeb565b925082613fac57613fab613f26565b5b828206905092915050565b600081519050919050565b600082825260208201905092915050565b6000613fde82613fb7565b613fe88185613fc2565b9350613ff8818560208601612a4c565b61400181612a7f565b840191505092915050565b60006080820190506140216000830187612b80565b61402e6020830186612b80565b61403b6040830185612c16565b818103606083015261404d8184613fd3565b905095945050505050565b600081519050614067816129a1565b92915050565b6000602082840312156140835761408261296b565b5b600061409184828501614058565b91505092915050565b7f4e487b7100000000000000000000000000000000000000000000000000000000600052603160045260246000fd5b7f4552433732313a206d696e7420746f20746865207a65726f2061646472657373600082015250565b60006140ff602083612a3b565b915061410a826140c9565b602082019050919050565b6000602082019050818103600083015261412e816140f2565b9050919050565b7f4552433732313a20746f6b656e20616c7265616479206d696e74656400000000600082015250565b600061416b601c83612a3b565b915061417682614135565b602082019050919050565b6000602082019050818103600083015261419a8161415e565b905091905056fea2646970667358221220d447546a919d03cddb505852399bcf6bcc8347024b4bb686e7f48623ea6fcb5064736f6c634300080e0033",
  "immutableReferences": {},
  "source": "//SPDX-License-Identifier: MIT\r\npragma solidity ^0.8.14;\r\n\r\nimport \"@openzeppelin/contracts/utils/Counters.sol\";\r\nimport \"@openzeppelin/contracts/access/Ownable.sol\";\r\nimport \"@openzeppelin/contracts/utils/math/SafeMath.sol\";\r\nimport \"@openzeppelin/contracts/token/ERC721/extensions/ERC721Enumerable.sol\";\r\n\r\ncontract NFTFamilyMemberAvatar is ERC721Enumerable, Ownable {\r\n    using SafeMath for uint256;\r\n    using Counters for Counters.Counter;\r\n    \r\n    Counters.Counter private _tokenIds;\r\n    \r\n    uint public constant MAX_SUPPLY = 100;\r\n    uint public constant PRICE = 0.01 ether;\r\n    uint public constant MAX_PER_MINT = 5;\r\n    \r\n    string public baseTokenURI;\r\n    \r\n    constructor(string memory baseURI) ERC721(\"NFT Family Member Avatar\", \"NFTFAM\") {\r\n        setBaseURI(baseURI);\r\n    }\r\n    \r\n    function reserveNFTs() public onlyOwner {\r\n        uint totalMinted = _tokenIds.current();\r\n\r\n        require(totalMinted.add(10) < MAX_SUPPLY, \"Not enough NFTs left to reserve\");\r\n\r\n        for (uint i = 0; i < 10; i++) {\r\n            _mintSingleNFT();\r\n        }\r\n    }\r\n    \r\n    function _baseURI() internal view virtual override returns (string memory) {\r\n        return baseTokenURI;\r\n    }\r\n    \r\n    function setBaseURI(string memory _baseTokenURI) public onlyOwner {\r\n        baseTokenURI = _baseTokenURI;\r\n    }\r\n    \r\n    function mintNFTs(uint _count) public payable {\r\n        uint totalMinted = _tokenIds.current();\r\n\r\n        require(totalMinted.add(_count) <= MAX_SUPPLY, \"Not enough NFTs left!\");\r\n        require(_count >0 && _count <= MAX_PER_MINT, \"Cannot mint specified number of NFTs.\");\r\n        require(msg.value >= PRICE.mul(_count), \"Not enough ether to purchase NFTs.\");\r\n\r\n        for (uint i = 0; i < _count; i++) {\r\n            _mintSingleNFT();\r\n        }\r\n    }\r\n    \r\n    function _mintSingleNFT() private {\r\n        uint newTokenID = _tokenIds.current();\r\n        _safeMint(msg.sender, newTokenID);\r\n        _tokenIds.increment();\r\n    }\r\n    \r\n    function tokensOfOwner(address _owner) external view returns (uint[] memory) {\r\n\r\n        uint tokenCount = balanceOf(_owner);\r\n        uint[] memory tokensId = new uint256[](tokenCount);\r\n\r\n        for (uint i = 0; i < tokenCount; i++) {\r\n            tokensId[i] = tokenOfOwnerByIndex(_owner, i);\r\n        }\r\n        return tokensId;\r\n    }\r\n    \r\n    function withdraw() public payable onlyOwner {\r\n        uint balance = address(this).balance;\r\n        require(balance > 0, \"No ether left to withdraw\");\r\n\r\n        (bool success, ) = (msg.sender).call{value: balance}(\"\");\r\n        require(success, \"Transfer failed.\");\r\n    }\r\n    \r\n}",
  "sourcePath": "C:\\Users\\user\\Documents\\node\\percent\\frontend\\contracts\\NFTFamilyMemberAvatar.sol",
  "compiler": {
    "name": "solc",
    "version": "0.8.14+commit.80d49f37.Emscripten.clang"
  },
  "schemaVersion": "3.4.3",
  "updatedAt": "2022-05-30T20:19:50.087Z",
  "devdoc": {
    "kind": "dev",
    "methods": {
      "approve(address,uint256)": {
        "details": "See {IERC721-approve}."
      },
      "balanceOf(address)": {
        "details": "See {IERC721-balanceOf}."
      },
      "getApproved(uint256)": {
        "details": "See {IERC721-getApproved}."
      },
      "isApprovedForAll(address,address)": {
        "details": "See {IERC721-isApprovedForAll}."
      },
      "name()": {
        "details": "See {IERC721Metadata-name}."
      },
      "owner()": {
        "details": "Returns the address of the current owner."
      },
      "ownerOf(uint256)": {
        "details": "See {IERC721-ownerOf}."
      },
      "renounceOwnership()": {
        "details": "Leaves the contract without owner. It will not be possible to call `onlyOwner` functions anymore. Can only be called by the current owner. NOTE: Renouncing ownership will leave the contract without an owner, thereby removing any functionality that is only available to the owner."
      },
      "safeTransferFrom(address,address,uint256)": {
        "details": "See {IERC721-safeTransferFrom}."
      },
      "safeTransferFrom(address,address,uint256,bytes)": {
        "details": "See {IERC721-safeTransferFrom}."
      },
      "setApprovalForAll(address,bool)": {
        "details": "See {IERC721-setApprovalForAll}."
      },
      "supportsInterface(bytes4)": {
        "details": "See {IERC165-supportsInterface}."
      },
      "symbol()": {
        "details": "See {IERC721Metadata-symbol}."
      },
      "tokenByIndex(uint256)": {
        "details": "See {IERC721Enumerable-tokenByIndex}."
      },
      "tokenOfOwnerByIndex(address,uint256)": {
        "details": "See {IERC721Enumerable-tokenOfOwnerByIndex}."
      },
      "tokenURI(uint256)": {
        "details": "See {IERC721Metadata-tokenURI}."
      },
      "totalSupply()": {
        "details": "See {IERC721Enumerable-totalSupply}."
      },
      "transferFrom(address,address,uint256)": {
        "details": "See {IERC721-transferFrom}."
      },
      "transferOwnership(address)": {
        "details": "Transfers ownership of the contract to a new account (`newOwner`). Can only be called by the current owner."
      }
    },
    "version": 1
  },
  "userdoc": {
    "kind": "user",
    "methods": {},
    "version": 1
  }
}